:100000000C9466000C948E000C948E000C948E0060
:100010000C948E000C948E000C948E000C948E0028
:100020000C948E000C948E000C948E000C944A0557
:100030000C948E000C9405010C948E000C948E0090
:100040000C9426080C948E000C94C00A0C94070B98
:100050000C948E000C948E000C948E000C948E00E8
:100060000C948E000C948E000000000024002700E9
:100070002A0000000000250028002B0000000000DE
:1000800023002600290004040404040404040202DA
:100090000202020203030303030301020408102007
:1000A0004080010204081020010204081020000012
:1000B0000007000201000003040600000000000029
:1000C0000000F1007E07A607440C770711241FBE2D
:1000D000CFEFD8E0DEBFCDBF11E0A0E0B1E0E6ECAD
:1000E000FCE102C005900D92AE31B107D9F713E0E3
:1000F000AEE1B1E001C01D92A533B107E1F710E018
:10010000CAECD0E004C02297FE010E941B0EC23C44
:10011000D107C9F70E949A0C0C94560E0C9400005B
:10012000A0E0B0E0E6E9F0E00C94270EEC01A88036
:10013000B980CA80DB80A114B104C104D10441F4A8
:1001400084E2A82E89EDB82E8BE5C82E87E0D82E44
:10015000C601B5012DE133EF41E050E00E94EA0D08
:1001600027EA31E440E050E00E948A0D7B018C01D7
:10017000C601B5012DE133EF41E050E00E94EA0DE8
:10018000CA01B9012CEE34EF4FEF5FEF0E948A0DE8
:100190006E0D7F1D801F911F97FF04C0615070403E
:1001A00080409048688379838A839B839B01AC015C
:1001B0005F77B901CA01CDB7DEB7EAE00C94430E10
:1001C0000E949000089580E091E00E9490000895C0
:1001D00060930001709301018093020190930301E9
:1001E000089580E090E0A8ECB2EC80931E0190931B
:1001F0001F01A0932001B09321010895FC011382F7
:10020000609322011092240108951F920F920FB65D
:100210000F9211242F933F934F935F936F937F938C
:100220008F939F93AF93BF93EF93FF9381EA9FEFD9
:100230009093850080938400809122010E94D009D0
:10024000482F8091250190912601019690932601D7
:10025000809325018091BF018C3418F085E0809354
:100260002301809123018330D1F0843020F4823047
:1002700009F059C006C0843071F1853009F053C0CF
:100280004CC0442309F04FC0809125019091260174
:100290008436910508F443C01092BF011EC041305E
:1002A00009F041C08091BF01E82FF0E020912501C5
:1002B00030912601EE0FFF1FEE5DFE4F3683258342
:1002C0008F5F8093BF01109226011092250184E078
:1002D0008093230128C04423B9F48091BF01E82F03
:1002E000F0E02091250130912601EE0FFF1FEE5D19
:1002F000FE4F368325838F5F8093BF0110922601C6
:100300001092250183E0E4CF809125019091260190
:100310008536910540F085E0DBCF442321F410922F
:1003200026011092250180912401882329F044237D
:1003300011F42D9A01C02D98FF91EF91BF91AF91CB
:100340009F918F917F916F915F914F913F912F91ED
:100350000F900FBE0F901F9018950F931F938C0155
:10036000FC01868160E00E947C0981E090E00E94AF
:100370006E08F801868161E00E947C0981E090E0CE
:100380000E946E08F801868160E00E947C0984E684
:1003900090E00E946E081F910F910895CF92DF9216
:1003A000EF92FF920F931F93CF93DF93D82EC92E16
:1003B000282F392FC9018C01C0E0D0E0E62EFF24A0
:1003C000F801878161E00E943D09B7010C2E02C04F
:1003D000759567950A94E2F76170F80187810E942C
:1003E0007C0921960F5F1F4FC830D10549F78D2D2D
:1003F0009C2D0E94AD01DF91CF911F910F91FF9035
:10040000EF90DF90CF900895CF92DF92EF92FF921E
:100410000F931F93CF93DF93D82EC92E282F392FF8
:10042000C9018C01C0E0D0E0E62EFF24F8018781ED
:1004300061E00E943D09B7010C2E02C075956795D9
:100440000A94E2F76170F80187810E947C09219685
:100450000F5F1F4FC430D10549F78D2D9C2D0E9491
:10046000AD01DF91CF911F910F91FF90EF90DF9041
:10047000CF9008951F93CF93DF93EC01162F8C81BB
:10048000642F0E947C098D818F3F19F060E00E94EB
:100490007C098F8584FF05C0CE01612F0E94CE01AB
:1004A0000EC0612F70E084E0759567958A95E1F73D
:1004B000CE010E940402CE01612F0E940402DF914E
:1004C000CF911F91089541E00E943A0281E090E0AF
:1004D000089540E00E943A020895FC016089862F49
:1004E0008460808B6C60CF010E946902089561E096
:1004F0000E94690280ED97E00E946E080895CF93F4
:10050000DF93EC01423018F08F8588608F874B8B2A
:100510001C8A222329F0413019F48F8584608F874B
:1005200080E593EC0E946E088C8160E00E947C095B
:100530008E8160E00E947C098D818F3F19F060E020
:100540000E947C096F8564FD1DC0CE0163E00E949E
:10055000040284E991E10E946E08CE0163E00E94EA
:10056000040284E991E10E946E08CE0163E00E94DA
:10057000040286E990E00E946E08CE0162E00E94CB
:10058000040216C06062CE010E94690284E991E112
:100590000E946E086F856062CE010E94690286E942
:1005A00090E00E946E086F856062CE010E94690231
:1005B0006F856062CE010E94690284E0888BCE0163
:1005C0000E946D02CE010E94770282E0898BCE01EB
:1005D00066E00E946902DF91CF9108956F927F9249
:1005E0008F92AF92CF92EF920F931F93DF93CF939F
:1005F000CDB7DEB73C01162F842FF301448325834A
:100600000683E782C086A18682869D8593879E8524
:1006100094879F8595879889968761E00E943D0918
:10062000F30185818F3F19F061E00E943D09F301DC
:10063000868161E00E943D09112319F0F3011786BC
:1006400003C080E1F3018787C30160E141E020E05E
:100650000E947F02CF91DF911F910F91EF90CF9079
:10066000AF908F907F906F9008958F92AF92CF92BE
:10067000EF920F931F93CF93DF93DC01362F542F0C
:10068000722F102FAE2C8C2C13961C921E92129748
:1006900089E091E011969C938E9300D000D0EDB745
:1006A000FEB73196CDB7DEB719821182128213825E
:1006B000CD0161E0432F2FEF052FE72EC12E0E94C1
:1006C000EE020F900F900F900F90DF91CF911F913E
:1006D0000F91EF90CF90AF908F900895FC01809193
:1006E000C0018C3090F482838F5F8093C001815071
:1006F00090E0FC01EE0FFF1FE80FF91FEF53FE4FD4
:1007000088EB9BE09283818308958FEF8283089525
:10071000FC0122812C30B8F58381992787FD9095C3
:1007200048E850E0481B590B440F551F440F551F14
:100730006417750784F08481992787FD909548E5B3
:1007400052E0481B590B440F551F440F551F6417A7
:1007500075070CF4AB0142505040CA01AA2797FD1F
:10076000A095BA2F880F991FAA1FBB1F4FB7F894E7
:1007700030E0F901EE0FFF1FE20FF31FEF53FE4FC2
:10078000928381834FBF0895FC0182818F3F19F4CA
:1007900020E030E016C090E0FC01EE0FFF1FE80FF4
:1007A000F91FEF53FE4F2181328183E0220F331F67
:1007B0008A95E1F7B4E036952795BA95E1F72E5F73
:1007C0003F4FC9010895AF92BF92CF92DF92EF924F
:1007D000FF920F931F938C010E94C40300D000D09E
:1007E0000196AA2797FDA095BA2FF8016381772774
:1007F00067FD709528E830E0261B370B220F331F6A
:10080000220F331F442737FD4095542F64817727EB
:1008100067FD7095E8E5EE2EE2E0FE2EE61AF70A97
:10082000EE0CFF1CEE0CFF1C0027F7FC0095102FB0
:1008300064EBA62EB12CC12CD12CEDB7FEB7A18252
:10084000B282C382D482BC01CD01AA24BB2465013B
:100850000E94D30C0F900F900F900F90CB011F911F
:100860000F91FF90EF90DF90CF90BF90AF900895E1
:10087000AF92BF92CF92DF92EF92FF920F931F93AE
:10088000CF93DF93EC019B0182E0603278070CF09C
:1008900048C077FF03C020E030E005C0653B71052C
:1008A00014F024EB30E000D000D0B901882777FDA8
:1008B0008095982F2B81332727FD3095E8E8AE2EC1
:1008C000B12CA21AB30AAA0CBB1CAA0CBB1CCC24C8
:1008D000B7FCC094DC2CEC81FF27E7FDF09528E500
:1008E00032E02E1B3F0B220F331F220F331F4427F2
:1008F00037FD4095542FEDB7FEB7218332834383F4
:10090000548320E030E040E050E004EBE02EF12C96
:10091000012D112D0E94D30C9B010F900F900F9071
:100920000F90CE01B9010E948803DF91CF911F91F2
:100930000F91FF90EF90DF90CF90BF90AF90089510
:10094000CF92DF92EF92FF921F93CF93DF93EC0150
:10095000162F7A0169018A818C3008F064C0862FD5
:1009600061E00E943D098A8190E0FC01EE0FFF1FCB
:10097000E80FF91FEF53FE4F1F738081807C812B9E
:10098000808380E292E08E199F0964E070E00E940B
:10099000B50D6B8380E699E08C199D0964E070E0E9
:1009A0000E94B50D6C83AA818A2F6CE00E94A90D6C
:1009B000682F70E0AB01440F551F460F571F440FBF
:1009C000551F440F551F20E030E0C901840F951FCB
:1009D000FC01EE0FFF1FE80FF91FEF53FE4F808160
:1009E00086FD15C02F5F3F4F2C30310571F724C0B5
:1009F0001092800082E08093810010928500109216
:100A00008400B19A80916F00826080936F008A2F7A
:100A100090E0FC01EE0FFF1FE80FF91FEF53FE4FB0
:100A20008081806480838A81DF91CF911F91FF90C4
:100A3000EF90DF90CF900895672BD1F2E8CF40E29E
:100A400052E020E639E00E94A00408950F931F931E
:100A5000CF93DF93EC018B018A8190E0FC01EE0FD4
:100A6000FF1FE80FF91FEF53FE4F808186FD09C07D
:100A7000688179818FEF6F3F780719F0CE010E946E
:100A80001F05CE01B8010E943804DF91CF911F915C
:100A90000F9108951F920F920FB60F9211242F936A
:100AA0003F934F935F936F937F938F939F93AF93F6
:100AB000BF93EF93FF938091E50187FF05C01092EC
:100AC0008500109284002BC02091E501332727FD7B
:100AD00030958091C00190E02817390704F5809186
:100AE000E501992787FD9095FC01EE0FFF1FE80FA8
:100AF000F91FEF53FE4F808186FF11C08091E50101
:100B0000992787FD9095FC01EE0FFF1FE80FF91F55
:100B1000EF53FE4F80818F7360E00E947C098091CB
:100B2000E5018F5F8093E5012091E501332727FDE3
:100B300030958091C00190E0281739070CF04EC025
:100B40008091E5018C300CF049C0209184003091F7
:100B500085008091E501992787FD9095FC01EE0FB6
:100B6000FF1FE80FF91FEF53FE4F81819281280F7D
:100B7000391F30938900209388008091E5019927DF
:100B800087FD9095FC01EE0FFF1FE80FF91FEF5353
:100B9000FE4F808186FF2BC08091E501992787FD5C
:100BA0009095FC01EE0FFF1FE80FF91FEF53FE4F6A
:100BB00080818F7361E00E947C0919C080E49CE908
:100BC00005C08091840090918500049690938900DF
:100BD000809388008FEF8093E50109C080918400A5
:100BE00090918500049680549C4940F3EACFFF9190
:100BF000EF91BF91AF919F918F917F916F915F9195
:100C00004F913F912F910F900FBE0F901F9018950D
:100C1000EF92FF920F931F93FC01162FF42EE22EFA
:100C20000083118280E090E0A0E0B0E082839383B3
:100C3000A483B58386839783A087B1878DEC9CECD2
:100C4000ACECBDE382879387A487B58766877787F7
:100C5000408B518B228B338B862F61E00E943D09A4
:100C60008F2D61E00E943D098E2D61E00E943D09BB
:100C7000812F60E00E947C098F2D60E00E947C093A
:100C80008E2D60E00E947C091F910F91FF90EF90E4
:100C90000895AF92BF92CF92EF920F93CF93DF93CD
:100CA000EC015B018130910509F019C18FEF6F3FB5
:100CB000780709F014C180E090E0A8ECB2EC8093D2
:100CC000820290938302A0938402B093850286EE01
:100CD00091E063E070E044E050E025E030E001E0C6
:100CE0000E9408068AEF91E06BE070E04AE050E075
:100CF00029E030E00E9408068EE092E00E946E0338
:100D000083E192E00E946E0388E192E00E946E030C
:100D10008DE192E06CE04BE025E004E053E0E52E4D
:100D200032E0C32E0E94350382E392E062E070E07D
:100D30000E94FE001092370210923602D0933902C0
:100D4000C093380210923B0210923A02D0933D02B7
:100D5000C0933C0225E020933E02B0925E02A09236
:100D60005D028DE292EBA6E6B1E480933F029093A0
:100D70004002A0934102B093420284E299EBACEDB1
:100D8000BFE38093430290934402A0934502B09343
:100D9000460280E090E0A0EAB1E48093470290939D
:100DA0004802A0934902B0934A0284EB98ECA1E96F
:100DB000B1E480934B0290934C02A0934D02B09308
:100DC0004E0283E49CE1ADEAB0E480934F0290933D
:100DD0005002A0935102B093520280E090E0ACE840
:100DE000B2E48093530290935402A0935502B093BF
:100DF00056028EEF91E0909358028093570289EB50
:100E000090E090935A028093590285E690E0909387
:100E10005C0280935B02D0936002C0935F022093D8
:100E20006102B0928102A092800286EE9FE3A8EC5C
:100E3000B0E48093620290936302A0936402B09343
:100E400065028FE29DEDACEEBFE380936602909366
:100E50006702A0936802B093690280E090E0A0E28C
:100E6000B1E480936A0290936B02A0936C02B093FA
:100E70006D028AEA92E8ACE0B1E480936E0290934E
:100E80006F02A0937002B09371028AE191E5A2EC27
:100E9000B0E48093720290937302A0937402B093B3
:100EA000750280E090E0ACE0B2E48093760290932B
:100EB0007702A0937802B093790283E092E0909356
:100EC0007B0280937A0287EA90E090937D02809380
:100ED0007C028AE590E090937F0280937E02DF910E
:100EE000CF910F91EF90CF90BF90AF90089580E099
:100EF00090E06FEF7FEF0E944906089581E090E057
:100F00006FEF7FEF0E944906089583E992E040E089
:100F100051EE60E070E00E94370B80E00E941B09F8
:100F20000E941C0D86E090E090930F0280930E02C9
:100F300087E090E0909314028093130288E090E0A1
:100F400090931902809318020895089580E090E02C
:100F5000A8ECB2EC8093860290938702A09388025B
:100F6000B093890208950F931F93182F062F61E005
:100F70000E943D09812F602F0E947C091F910F91D3
:100F80000895CF93DF930E9485078EE092E062E39D
:100F900070E00E94260568E873E180E090E00E941E
:100FA000B3088EE092E064E470E00E94260560EDF4
:100FB00077E080E090E00E94B3088EE092E06CE47D
:100FC00070E00E94260568E873E180E090E00E94EE
:100FD000B308C0E0D0E083E060E00E943D0983E018
:100FE00061E028E03CE441E050E00E94230A0E94D6
:100FF000250D20E038E840E957E40E94860D1816D8
:1010000074F48DE061E00E94B3078EE092E00E94EC
:10101000E303BC016F5F7F4F8EE092E008C08DE07C
:1010200060E00E94B3078EE092E064E470E00E940A
:1010300026052196C13ED10571F68EE092E062E36D
:1010400070E00E942605DF91CF9108951F920F92C4
:101050000FB60F9211242F933F938F939F93AF93CB
:10106000BF9380918E0290918F02A0919002B091D7
:101070009102309192020196A11DB11D232F2D5F87
:101080002D3720F02D570196A11DB11D20939202FE
:1010900080938E0290938F02A0939002B09391025E
:1010A00080918A0290918B02A0918C02B0918D0266
:1010B0000196A11DB11D80938A0290938B02A0938B
:1010C0008C02B0938D02BF91AF919F918F913F9110
:1010D0002F910F900FBE0F901F901895019739F028
:1010E000880F991F880F991F02970197F1F70895AC
:1010F000789484B5826084BD84B5816084BD85B5F3
:10110000826085BD85B5816085BDEEE6F0E08081B9
:1011100081608083E1E8F0E01082808182608083DA
:10112000808181608083E0E8F0E08081816080835D
:10113000E1EBF0E0808184608083E0EBF0E080818F
:1011400081608083EAE7F0E0808184608083808131
:1011500082608083808181608083808180688083D9
:101160001092C1000895EF92FF920F931F93CF93B7
:10117000DF937B018C013FB7F89480918A029091B4
:101180008B02A0918C02B0918D0226B5A89B05C060
:101190002F3F19F00196A11DB11D3FBFBA2FA92FF6
:1011A000982F8827820F911DA11DB11D52E0880F35
:1011B000991FAA1FBB1F5A95D1F7EC0130C00E949E
:1011C000240D3FB7F89480918A0290918B02A091F0
:1011D0008C02B0918D0226B5A89B05C02F3F19F057
:1011E0000196A11DB11D3FBFBA2FA92F982F8827A7
:1011F000820F911DA11DB11D32E0880F991FAA1FFA
:10120000BB1F3A95D1F78C1B9D0B885E9340B8F2BB
:101210000894E108F10801091109C851DC4FE114F3
:10122000F1040105110559F6DF91CF911F910F913E
:10123000FF90EF900895982F8E3008F09E50977091
:10124000809104018295880F880F807C892B809380
:101250007C0080917A00806480937A0080917A008B
:1012600086FDFCCF2091780040917900942F80E09A
:1012700030E0282B392BC9010895CF93DF93482FF5
:1012800050E0CA0186569F4FFC0134914A575F4F88
:10129000FA018491882369F190E0880F991FFC017D
:1012A000E859FF4FA591B491FC01EE58FF4FC5914D
:1012B000D491662351F42FB7F8948C91932F909585
:1012C00089238C93888189230BC0623061F42FB706
:1012D000F8948C91932F909589238C938881832BFC
:1012E00088832FBF06C09FB7F8948C91832B8C9373
:1012F0009FBFDF91CF910895482F50E0CA018255DA
:101300009F4FFC012491CA0186569F4FFC01949186
:101310004A575F4FFA013491332309F440C0222326
:1013200051F1233071F0243028F42130A1F0223023
:1013300011F514C02630B1F02730C1F02430D9F4B3
:1013400004C0809180008F7703C0809180008F7DE2
:101350008093800010C084B58F7702C084B58F7DE4
:1013600084BD09C08091B0008F7703C08091B00028
:101370008F7D8093B000E32FF0E0EE0FFF1FEE585B
:10138000FF4FA591B4912FB7F894662321F48C9167
:101390009095892302C08C91892B8C932FBF08953F
:1013A000682F70E0CB0182559F4FFC012491CB0147
:1013B00086569F4FFC0144916A577F4FFB019491E1
:1013C000992319F420E030E03CC0222351F123306E
:1013D00071F0243028F42130A1F0223011F514C02E
:1013E0002630B1F02730C1F02430D9F404C0809108
:1013F00080008F7703C0809180008F7D8093800074
:1014000010C084B58F7702C084B58F7D84BD09C0BC
:101410008091B0008F7703C08091B0008F7D809362
:10142000B000892F90E0880F991F84589F4FFC01CE
:10143000A591B4918C9120E030E0842311F021E05B
:1014400030E0C90108958F929F92AF92BF92CF92E0
:10145000DF92EF92FF920F931F93CF93DF93A82F0A
:10146000B0E0CD0186569F4FFC018490AA57BF4F34
:10147000FD018491662311F4992401C0982C6FEF2B
:10148000A62E6FEFB62E6FEFC62E6FE0D62EA222DD
:10149000B322C422D522682F70E0660F771F6458EC
:1014A0007F4FEE24FF248701FB01A591B4910BC06F
:1014B000EA14FB040C051D0509F44EC00894E11C58
:1014C000F11C011D111D8C918821891589F30CC017
:1014D000EA14FB040C051D0509F43EC00894E11C48
:1014E000F11C011D111D03C0FB01A591B4918C914C
:1014F0008821891569F720E030E040E050E0FB01E9
:10150000C591D4910FC0DA01C9018E0D9F1DA01F96
:10151000B11F8A159B05AC05BD05F1F02F5F3F4F4C
:101520004F4F5F4F88818821891569F3CA01B9013E
:1015300025E130E040E050E00E948A0D9B01AC01C3
:10154000205F3F4F4F4F5F4F84E05695479537954B
:1015500027958A95D1F704C020E030E040E050E0C4
:10156000B901CA01DF91CF911F910F91FF90EF90C8
:10157000DF90CF90BF90AF909F908F900895089587
:101580001F920F920FB60F9211242F933F934F93F8
:101590008F939F93EF93FF938091C00082FD19C0BA
:1015A0004091C6008091B102282F30E02F5F3F4F5D
:1015B0002F7330708091B20290E02817390759F0EC
:1015C000E091B102F0E0ED56FD4F42A32093B1024D
:1015D00002C08091C600FF91EF919F918F914F9132
:1015E0003F912F910F900FBE0F901F9018958091F3
:1015F000B1022091B20290E0805C9F4F821B910962
:101600008F739070892B11F00E94BF0A08951F926A
:101610000F920FB60F9211242F938F939F93EF93F6
:10162000FF939091B3028091B402981731F48091A6
:10163000C1008F7D8093C10010C0E091B402F0E042
:10164000EB50FD4F20818091B40290E001968F73A2
:1016500090708093B4022093C600FF91EF919F9108
:101660008F912F910F900FBE0F901F901895AF92F2
:10167000BF92DF92EF92FF920F931F93CF93DF936E
:10168000EC017A018B01DD24403081EE580780E0C7
:10169000680780E0780711F0DD24D39491E0A92E4B
:1016A000B12CE889F989DD2069F0C5010C8C02C0F4
:1016B000880F991F0A94E2F7808360E079E08DE358
:1016C00090E005C0108260E874E88EE190E0A80127
:1016D00097010E94C80D215030404040504056951F
:1016E00047953795279580E12030380720F0DD2099
:1016F00011F0DD24D6CFEC85FD853083EE85FF85A6
:1017000020831D8EEA89FB89408121E030E0C901F8
:10171000088C02C0880F991F0A94E2F7482B408377
:10172000EA89FB894081C901098C02C0880F991F91
:101730000A94E2F7482B4083EA89FB894081C9017A
:101740000A8C02C0880F991F0A94E2F7482B408345
:10175000EA89FB8980810B8C02C0220F331F0A9417
:10176000E2F7209528232083DF91CF911F910F91DD
:10177000FF90EF90DF90BF90AF900895FC01268D11
:10178000878D30E0205C3F4F281B31092F7330706C
:10179000C9010895FC01968D878D981719F42FEFD4
:1017A0003FEF06C0878DE80FF11D82A1282F30E0A2
:1017B000C9010895DC015E969C915E975F968C91BD
:1017C0005F97981719F42FEF3FEF10C05F968C9139
:1017D0005F97FD01E80FF11D92A15F968C915F97D5
:1017E0008F5F8F735F968C93292F30E0C901089526
:1017F000DC015D968C915D97882339F05096ED91D0
:10180000FC915197808186FFF9CF5D961C920895D7
:10181000DC0190968C919097282F30E02F5F3F4FFE
:101820002F73307091968C91919790E0281739071B
:10183000C9F390968C919097FD01E80FF11DEE5938
:10184000FF4F608390962C9390975296ED91FC9168
:101850005397208181E090E05B960C905B9702C0EB
:10186000880F991F0A94E2F7282B208381E05D9668
:101870008C935D975096ED91FC9151978081806497
:10188000808381E090E00895109296021092950274
:1018900088EE93E0A0E0B0E08093970290939802E6
:1018A000A0939902B0939A0281E191E090939402FF
:1018B000809393021092B4028091B4028093B30299
:1018C0001092B2028091B2028093B10285EC90E056
:1018D0009093A00280939F0284EC90E09093A202E8
:1018E0008093A10280EC90E09093A4028093A302E5
:1018F00081EC90E09093A6028093A50282EC90E0A8
:101900009093A8028093A70286EC90E09093AA029D
:101910008093A90284E08093AB0283E08093AC02C1
:1019200087E08093AD0285E08093AE0281E08093F2
:10193000AF020895CF93DF930E9478080E94C107F9
:10194000C7EFDAE00E94A5072097E1F30E94F70AAB
:10195000F9CFCF92DF92EF92FF920F931F93CF9325
:10196000DF937C016B018A01C0E0D0E00FC0D6019B
:101970006D916D01D701ED91FC910190F081E02D09
:10198000C7010995C80FD91F015010400115110555
:1019900071F7CE01DF91CF911F910F91FF90EF90E2
:1019A000DF90CF9008952F923F924F925F926F9267
:1019B0007F928F929F92AF92BF92CF92DF92EF92DF
:1019C000FF920F931F93DF93CF93CDB7DEB73B0109
:1019D0004C0119012A016D897E898F89988D6A19B8
:1019E0007B098C099D09621A730A840A950AA4016D
:1019F00093010E948A0DE218F30804091509A80151
:101A000097010E94EA0D2A0D3B1D4C1D5D1DB90179
:101A1000CA01CF91DF911F910F91FF90EF90DF905E
:101A2000CF90BF90AF909F908F907F906F905F907E
:101A30004F903F902F900895009729F0BC0180E0CF
:101A400090E00E94E80008950895E89409C097FB8B
:101A50003EF490958095709561957F4F8F4F9F4F85
:101A60009923A9F0F92F96E9BB279395F6958795C9
:101A700077956795B795F111F8CFFAF4BB0F11F48C
:101A800060FF1BC06F5F7F4F8F4F9F4F16C0882333
:101A900011F096E911C0772321F09EE8872F762F69
:101AA00005C0662371F096E8862F70E060E02AF0AA
:101AB0009A95660F771F881FDAF7880F9695879596
:101AC00097F90895990F0008550FAA0BE0E8FEEF6B
:101AD00016161706E807F907C0F012161306E407F2
:101AE000F50798F0621B730B840B950B39F40A26EB
:101AF00061F0232B242B252B21F408950A2609F4C9
:101B0000A140A6958FEF811D811D0895DBDF08F4AC
:101B10008FEF0895629FD001739FF001829FE00DC7
:101B2000F11D649FE00DF11D929FF00D839FF00D5C
:101B3000749FF00D659FF00D9927729FB00DE11D08
:101B4000F91F639FB00DE11DF91FBD01CF011124E5
:101B50000895991B79E004C0991F961708F0961B09
:101B6000881F7A95C9F78095089597FB092E072657
:101B70000AD077FD04D049D006D000201AF4709521
:101B800061957F4F0895F6F7909581959F4F089541
:101B9000A1E21A2EAA1BBB1BFD010DC0AA1FBB1F71
:101BA000EE1FFF1FA217B307E407F50720F0A21BE3
:101BB000B30BE40BF50B661F771F881F991F1A9450
:101BC00069F760957095809590959B01AC01BD017A
:101BD000CF01089597FB092E05260ED057FD04D09E
:101BE000D7DF0AD0001C38F45095409530952195E8
:101BF0003F4F4F4F5F4F0895F6F790958095709542
:101C000061957F4F8F4F9F4F0895AA1BBB1B51E1DA
:101C100007C0AA1FBB1FA617B70710F0A61BB70B5C
:101C2000881F991F5A95A9F780959095BC01CD0101
:101C30000895EE0FFF1F0590F491E02D09942F9267
:101C40003F924F925F926F927F928F929F92AF924C
:101C5000BF92CF92DF92EF92FF920F931F93CF9399
:101C6000DF93CDB7DEB7CA1BDB0B0FB6F894DEBF30
:101C70000FBECDBF09942A88398848885F846E8456
:101C80007D848C849B84AA84B984C884DF80EE80A0
:101C9000FD800C811B81AA81B981CE0FD11D0FB6A9
:101CA000F894DEBF0FBECDBFED01089510E0CAEC81
:101CB000D0E004C0FE010E941B0E2296CC3CD1074E
:061CC000C9F7F894FFCF04
:101CC6000100000001000000006302A90C000000F2
:0E1CD60000080CA90CBE0BDA0BCA0BF80B00B1
:00000001FF
